:020000040800F2
:1000000000000320B13D0008410B0008510B00081F
:10001000790B0008810B0008890B00080000000024
:10002000000000000000000000000000510C00086B
:10003000910B000800000000610E0008C90E0008C6
:10004000FD3D0008FD3D0008FD3D0008FD3D0008A8
:10005000FD3D0008FD3D0008FD3D0008FD3D000898
:10006000FD3D0008FD3D0008FD3D0008FD3D000888
:100070008D030008FD3D0008FD3D0008FD3D000822
:10008000FD3D0008FD3D0008FD3D0008FD3D000868
:10009000FD3D0008FD3D0008FD3D0008FD3D000858
:1000A000FD3D0008FD3D0008FD3D0008FD3D000848
:1000B000FD3D0008FD3D0008FD3D0008FD3D000838
:1000C000FD3D0008FD3D0008FD3D0008FD3D000828
:1000D000FD3D0008FD3D0008FD3D0008D50200087B
:1000E000FD3D0008FD3D0008FD3D0008FD3D000808
:1000F000FD3D0008FD3D0008FD3D0008FD3D0008F8
:10010000FD3D0008FD3D0008FD3D0008FD3D0008E7
:10011000FD3D0008FD3D0008FD3D0008FD3D0008D7
:10012000FD3D0008FD3D0008FD3D0008FD3D0008C7
:10013000FD3D0008FD3D0008FD3D0008FD3D0008B7
:10014000FD3D0008FD3D0008FD3D0008FD3D0008A7
:10015000FD3D0008FD3D0008FD3D000819030008B5
:10016000FD3D0008FD3D0008FD3D0008FD3D000887
:10017000FD3D0008FD3D0008FD3D000800000000B9
:10018000FD3D0008FD3D0008FD3D0008FD3D000867
:10019000FD3D0008FD3D0008FD3D0008FD3D000857
:0C01A000FD3D0008FD3D0008FD3D00088D
:1001AC00383E00080000002018000020383E0008EF
:1001BC00000000100000001018000020A42E0120E8
:0801CC0000000010000000100B
:1001E00080B487B000AFF860B9607A60BB687B61AB
:1001F000FB683B6107E03B695A1C3A617A69511C14
:10020000796112781A707B685A1E7A60002BF2D1DD
:10021000FB6818461C37BD465DF8047B704700BF7D
:1002200080B483B000AF0346FB710D4B9B899BB23A
:1002300003F40053002B0CD0094BFA79D2B292B2DE
:100240009A8000BF064B1B889BB203F08003002BF3
:10025000F8D000BF0C37BD465DF8047B704700BF87
:100260000048004080B483B000AF0346FB710D4BE3
:100270009B899BB203F40053002B0CD0094BFA79F5
:10028000D2B292B29A8000BF064B1B889BB203F099
:100290008003002BF8D000BF0C37BD465DF8047B0F
:1002A000704700BF0014014080B582B000AF786095
:1002B00007E07B685A1C7A601B78DBB21846FFF7B0
:1002C000D1FF7B681B78DBB2002BF2D100BF08376F
:1002D000BD4680BD80B582B000AF40F224410C48DD
:1002E00003F00AFB0346002B0DD0094B1B889BB281
:1002F0007B60074B9B889BB27B60064A054B1B6863
:1003000023F00103136000BF0837BD4680BD00BF66
:10031000004800402860024080B582B000AF40F243
:100320002661174803F0E8FA0346002B04D040F298
:100330002661134803F03CFB40F22551104803F0BE
:10034000DBFA0346002B17D00D4803F059FA034699
:10035000FB71FB79522B02D0FB79722B03D1094B35
:1003600001221A7008E0FB79532B02D0FB79732B22
:1003700002D1054B01221A7000BF0837BD4680BD6F
:1003800000140140792D0120942D012080B584B006
:1003900000AF344B1A68344B1340002B02D0314B62
:1003A000314A9A60314B5B68C3F14003BB60304B0C
:1003B0001B68C3F180037B607A68BB689A4202D9EC
:1003C000BB687B6008E07A68BB689A4204D2284B1D
:1003D00000221A60BB687B60264BFB60244B1B68C5
:1003E000254A1344BA68F9681846FFF7F9FE7A6897
:1003F0001F4B1B6813441E4A1360BA681F4B1B68CF
:1004000013441E4A13607B68BA68D31ABB607B68CA
:10041000FA681344FB6000233B60194B1B683A46A3
:100420001146184601F0DAF80E4B164A9A600F4B47
:10043000104ADA600D4B40225A600C4A0B4B1B6885
:1004400043F0010313603B68002B07D00E4B4FF0C5
:1004500080521A60BFF34F8FBFF36F8F00BF10370A
:10046000BD4680BD006002400008001028600240C8
:10047000902D0120202E01209C2D0120802D012077
:10048000602E0120400F001004ED00E080B48BB01E
:1004900000AF78607B681B687B627B685B683B624F
:1004A0007B689B68FB617B68DB68BB617B681B6961
:1004B0007B617B685B693B617B689B69FB607B68F8
:1004C000DB69BB60FEE700BF80B485B000AFF860B9
:1004D000B9607A600EE0FB681A78BB681B789A42B4
:1004E00002D04FF0FF330BE0FB680133FB60BB68C9
:1004F0000133BB607B685A1E7A60002BEBD100236E
:1005000018461437BD465DF8047B704780B586B049
:1005100000AFF860B9607A603B60FB687B617B6824
:100520003B613B68002B11D1002314E03A68396924
:100530007869FFF7C9FF0346002B01D17B690AE008
:100540007B6901337B61BB68013BBB603A68BB6878
:100550009A42EBD9002318461837BD4680BD00BF2C
:1005600080B500AF0121402003F0EAFA0A4B4FF4B6
:10057000C0421A60084B01221A71074B02225A71BD
:10058000054B00229A71044B0122DA71024903489B
:1005900003F036FB00BF80BD882D0120001802400B
:1005A00080B584B000AF78601423FB60194A07F16E
:1005B000080312881A80184B18680023FA68002173
:1005C00001F096F80346012BF5D1144B1B7883F00C
:1005D0000103DBB2002BEED072B607F10802022352
:1005E00080210F48FFF792FF0346002B03D10D2017
:1005F000FFF716FE0BE00B48FFF756FE074B0122F4
:100600001A70094A084B5B6983F40053536162B660
:10061000D1E700BF0C3E0008602E0120782D01209C
:100620009C2D0120003E00080018024080B582B0D9
:1006300000AF7860104A104B5B6983F480435361CC
:1006400010E00E4B1B685A1C0C490A600C4AD35C24
:100650001846FFF707FE094B1B68802B02D9074B92
:1006600000221A60054B1A68064B1B689A42E8D1B3
:100670001E2001F0E5FBDDE700180240982D012067
:100680009C2D0120902D012080B582B002AF032265
:100690000021012000F0BAFD0246114B1A60FFF75D
:1006A0005FFF104B00221A7000F01AF900F052F8A8
:1006B000002301930123009300234FF480720A4921
:1006C0000A4801F093FA00230193012300930023C9
:1006D00064220749074801F089FA01F0E5FBFEE7CB
:1006E000602E0120782D0120103E0008A105000891
:1006F000183E00082D06000880B400AF00BFBD46BC
:100700005DF8047B704700BF80B483B000AF4FF04A
:10071000500383F31188BFF36F8FBFF34F8F7B605C
:10072000FEE700BF80B400AF00BFBD465DF8047BAC
:10073000704700BF80B485B000AF786039604FF07B
:10074000500383F31188BFF36F8FBFF34F8FFB60AC
:10075000FEE700BF80B596B000AF0121022003F094
:10076000EFF901214FF4802003F00AFA01214FF440
:10077000001003F0E5F94FF48063FB63022387F870
:100780004030022387F84130002387F842300123AC
:1007900087F8433007220A214C4803F0BFFA0722AA
:1007A0000B214A4803F0BAFA07F13C0319464748BF
:1007B00003F026FA4FF40063FB6307F13C0319468C
:1007C000424803F01DFA4FF41653BB640023A7F808
:1007D0004C300023A7F84E304FF48063A7F8503018
:1007E0000023A7F854300C23A7F85230272387F8AA
:1007F0004430012387F84730012387F845304FF410
:10080000407002F0C7FD07F14403184602F0D6FD20
:1008100007F1480319462E4802F018FF012240F262
:1008200024412B4803F020F83B46184602F080FE96
:100830004FF000633B60274B7B60274BBB6040233E
:100840003B6100237B614FF48063BB610023FB614C
:1008500000233B6200237B624FF40033BB62002322
:10086000FB620023FB6002233B6300237B630023C6
:10087000BB630C2387F84430012387F847300523F6
:1008800087F845304FF4407002F084FD07F14403CF
:10089000184602F093FD3B461946104802F0F0FD61
:1008A000012210210D4802F097FE01210B4802F0B1
:1008B00077FE01224021064802F0B2FF01210448E0
:1008C00002F07EFF00BF5837BD4680BD00040240E5
:1008D0000048004004480040202E012028600240CB
:1008E00080B588B000AF4FF416533B610023BB8244
:1008F0000023FB824FF480633B830023BB830C23E4
:100900007B830121042003F01BF90121202003F047
:1009100057F940237B6002233B7200237B72002344
:10092000BB720123FB72082206211D4803F0F6F971
:10093000082207211A4803F0F1F93B1D194618480F
:1009400003F05EF980237B603B1D1946144803F0D9
:1009500057F907F110031946124802F077FE4723B2
:100960003B730123FB7308237B730123BB7307F1E4
:100970000C03184602F022FD01210A4802F020FF74
:10098000012240F22661074802F06EFF012240F288
:100990002551044802F068FF00BF2037BD4680BDE6
:1009A000000802400014014080B500AF164A164B03
:1009B000D3F8883043F47003C2F88830134A134BDD
:1009C0001B6843F001031360104B00229A600F4A2A
:1009D0000E4B1B6823F0847323F4803313600B4B9E
:1009E0000B4A5A60094A094B1B6823F480231360A1
:1009F000064B0022DA6000F00DF8034B4FF0006266
:100A00009A6000BF80BD00BF00ED00E000380240EA
:100A10001030002480B483B000AF00237B6000233B
:100A20003B60434A424B1B6843F480331360404BA6
:100A30001B6803F400333B607B6801337B603B68D9
:100A4000002B03D17B68B3F5A04FF0D1384B1B6866
:100A500003F40033002B02D001233B6001E00023AC
:100A60003B603B68012B5CD1314A314B1B6C43F03E
:100A7000805313642F4A2F4B1B6843F44043136089
:100A80002B4A2B4B9B689360294A294B9B6843F464
:100A900000439360264A264B9B6843F4A05393601F
:100AA000234B254A5A60224A214B1B6843F080732E
:100AB000136000BF1E4B1B6803F00073002BF9D0BE
:100AC0001C4A1C4B1B6843F48033136000BF194B56
:100AD0005B6803F48033002BF9D0164A154B1B6872
:100AE00043F40033136000BF124B5B6803F4003320
:100AF000002BF9D0114B40F205721A600C4A0C4BD6
:100B00009B6823F003039360094A094B9B6843F0F9
:100B10000203936000BF064B9B6803F00C03082B95
:100B2000F9D100BF0C37BD465DF8047B704700BFAC
:100B30000038024000700040085A4007003C024064
:100B400080B400AF00BFBD465DF8047B704700BFB6
:100B500080B400AF1EF0040F0CBFEFF30880EFF37A
:100B600009808169004A10478D04000800BFBD4616
:100B70005DF8047B704700BF80B400AFFEE700BFA4
:100B800080B400AFFEE700BF80B400AFFEE700BF57
:100B900080B400AF00BFBD465DF8047B704700BF66
:100BA00080B485B000AFF860B9607A60FB68043B40
:100BB000FB60FB684FF080721A60FB68043BFB60CF
:100BC000BB6823F00102FB681A60FB68043BFB6012
:100BD0000C4AFB681A60FB68143BFB607A68FB6890
:100BE0001A60FB68043BFB60FB686FF002021A604E
:100BF000FB68203BFB60FB6818461437BD465DF878
:100C0000047B7047090C000880B483B000AF0C4B24
:100C10001B68B3F1FF3F09D04FF0500383F31188F5
:100C2000BFF36F8FBFF34F8F3B60FEE74FF0500372
:100C300083F31188BFF36F8FBFF34F8F7B60FEE7A5
:100C40000400002000000000000000000000000080
:100C5000074B19680868B0E8F04F80F30988BFF3C4
:100C60006F8F4FF0000080F311887047AFF3008062
:100C70002000002000BF00BF06480068006880F325
:100C8000088862B661B6BFF34F8FBFF36F8F00DF86
:100C900000BF00BF08ED00E080B586B000AF3B4B61
:100CA0001B683B4A934209D14FF0500383F31188EC
:100CB000BFF36F8FBFF34F8FFB60FEE7334B1B68B3
:100CC000344A934209D14FF0500383F31188BFF3A4
:100CD0006F8FBFF34F8F3B61FEE72F4B7B617B69CB
:100CE0001B78DBB2BB607B69FF221A707B691B78C3
:100CF000DBB2FB71FB79DBB203F05003DAB2274BB6
:100D00001A70274B07221A6009E0254B1B68013B2C
:100D1000234A1360FB79DBB25B00DBB2FB71FB792A
:100D2000DBB25BB2002BF0DB1D4B1B681B021C4AC5
:100D300013601B4B1B6803F4E063194A1360BB6824
:100D4000DAB27B691A70174A164B1B6843F47003BA
:100D50001360144A134B1B6843F07043136000F098
:100D6000D3F8114B00221A6000F0EAF80F4A0F4B3B
:100D70001B6843F040431360FFF77EFFFFF744FF1B
:100D8000002318461837BD4680BD00BF00ED00E0C7
:100D900071C20F4170C20F4100E400E01800002052
:100DA0001C00002020ED00E00400002034EF00E0F3
:100DB00080B483B000AF4FF0500383F31188BFF3CA
:100DC0006F8FBFF34F8F3B600E4B1B6801330D4A93
:100DD00013600C4B1B68012B0ED10B4B1B68DBB255
:100DE000002B09D04FF0500383F31188BFF36F8FAE
:100DF000BFF34F8F7B60FEE700BF0C37BD465DF849
:100E0000047B70470400002004ED00E080B483B050
:100E100000AF114B1B68002B09D14FF0500383F337
:100E20001188BFF36F8FBFF34F8F3B60FEE70A4B14
:100E30001B68013B084A1360074B1B68002B04D159
:100E400000237B607B6883F3118800BF0C37BD46AD
:100E50005DF8047B704700BF040000200000000024
:100E6000EFF30980BFF36F8F154B1A681EF0100F58
:100E700008BF20ED108A20E9F04F10604DF8043DC6
:100E80004FF0500080F31188BFF34F8FBFF36F8F87
:100E900001F0D4F94FF0000080F3118808BC196804
:100EA0000868B0E8F04F1EF0100F08BFB0EC108AD1
:100EB00080F30988BFF36F8F704700BFAFF30080E6
:100EC0002000002000BF00BF80B582B000AF4FF00F
:100ED000500383F31188BFF36F8FBFF34F8F3B60D5
:100EE00001F0E8F80346002B03D0064B4FF0805288
:100EF0001A6000237B607B6883F3118800BF08378A
:100F0000BD4680BD04ED00E080B400AF084A094B47
:100F10001B680949A1FB03139B09013B1360074BA5
:100F200007221A6000BFBD465DF8047B704700BF12
:100F300014E000E000000020D34D621010E000E05B
:100F4000DFF80C00016841F470010160704700BFD8
:100F500088ED00E080B485B000AFEFF30583FB605F
:100F6000FB680F2B13D9164AFB6813441B78FB72DE
:100F7000144B1B78FA7A9A4209D24FF0500383F34C
:100F80001188BFF36F8FBFF34F8F3B60FEE70E4BAF
:100F90001B6803F4E0620D4B1B689A4209D94FF0BD
:100FA000500383F31188BFF36F8FBFF34F8F7B60C4
:100FB000FEE700BF1437BD465DF8047B704700BFF5
:100FC000F0E300E0180000200CED00E01C00002021
:100FD00080B483B000AF78607B6803F108027B685F
:100FE0005A607B684FF0FF329A607B6803F1080219
:100FF0007B68DA607B6803F108027B681A617B68B2
:1010000000221A6000BF0C37BD465DF8047B7047B4
:1010100080B483B000AF78607B6800221A6100BFA3
:101020000C37BD465DF8047B704700BF80B485B0C7
:1010300000AF786039607B685B68FB603B68FA688A
:101040005A60FB689A683B689A60FB689B683A68DC
:101050005A60FB683A689A603B687A681A617B68F4
:101060001B685A1C7B681A6000BF1437BD465DF8C8
:10107000047B704780B485B000AF786039603B680E
:101080001B68BB60BB68B3F1FF3F03D17B681B6982
:10109000FB600CE07B680833FB6002E0FB685B6888
:1010A000FB60FB685B681A68BB689A42F6D9FB680C
:1010B0005A683B685A603B685B683A689A603B686C
:1010C000FA689A60FB683A685A603B687A681A6105
:1010D0007B681B685A1C7B681A6000BF1437BD46CA
:1010E0005DF8047B704700BF80B485B000AF7860C6
:1010F0007B681B69FB607B685B687A6892689A60B2
:101100007B689B687A6852685A60FB685A687B689B
:101110009A4203D17B689A68FB685A607B68002218
:101120001A61FB681B685A1EFB681A60FB681B6823
:1011300018461437BD465DF8047B704780B584B00F
:1011400000AF786039607B68FB60FB68002B09D1D9
:101150004FF0500383F31188BFF36F8FBFF34F8FAE
:10116000BB60FEE7FFF724FEFB681A68FB68DB6BD9
:10117000F968096C01FB03F31A44FB685A60FB68C9
:1011800000229A63FB681A68FB689A60FB681A6819
:10119000FB68DB6B013BF968096C01FB03F31A4444
:1011A000FB68DA60FB68FF2283F84420FB68FF22BB
:1011B00083F845203B68002B14D1FB681B69002B8A
:1011C0001AD0FB681033184601F0F0F80346002BE4
:1011D00012D00D4B4FF080521A60BFF34F8FBFF308
:1011E0006F8F09E0FB6810331846FFF7F1FEFB68CC
:1011F00024331846FFF7ECFEFFF708FE01231846DC
:101200001037BD4680BD00BF04ED00E080B58AB058
:1012100002AFF860B9601346FB71FB68002B09D17F
:101220004FF0500383F31188BFF36F8FBFF34F8FDD
:101230003B61FEE7BB68002B02D10023FB6104E0A9
:10124000FB68BA6802FB03F3FB61FB69483318468D
:1012500001F0C6FEB861BB69002B0BD0BB694833F7
:101260007B61FA79BB69009313467A69B968F868BB
:1012700000F006F8BB6918462037BD4680BD00BFA8
:1012800080B584B000AFF860B9607A60FB70BB686D
:10129000002B03D1BB69BA691A6002E0BB697A68A6
:1012A0001A60BB69FA68DA63BB69BA681A6401211B
:1012B000B869FFF743FF00BF1037BD4680BD00BFD0
:1012C00080B58EB000AFF860B9607A603B600023F3
:1012D0007B63FB683B633B6B002B09D14FF05003F2
:1012E00083F31188BFF36F8FBFF34F8FFB61FEE76E
:1012F000BB68002B03D13B6B1B6C002B01D101237E
:1013000000E00023002B09D14FF0500383F3118834
:10131000BFF36F8FBFF34F8F3B62FEE73B68022B3B
:1013200003D13B6BDB6B012B01D1012300E00023D8
:10133000002B09D14FF0500383F31188BFF36F8F57
:10134000BFF34F8F7B62FEE701F0ECF90346002B01
:1013500002D17B68002B01D1012300E00023002B88
:1013600009D14FF0500383F31188BFF36F8FBFF3A0
:101370004F8FBB62FEE7FFF71BFD3B6B9A6B3B6B2E
:10138000DB6B9A4202D33B68022B29D13A68B968D9
:10139000386B00F0BFFAF8623B6B5B6A002B10D031
:1013A0003B6B2433184601F001F80346002B13D0A1
:1013B0003F4B4FF080521A60BFF34F8FBFF36F8FD8
:1013C0000AE0FB6A002B07D0394B4FF080521A60BD
:1013D000BFF34F8FBFF36F8FFFF718FD012363E05B
:1013E0007B68002B03D1FFF711FD00235CE07B6BD2
:1013F000002B06D107F11403184601F039F8012338
:101400007B63FFF703FD00F09BFDFFF7D1FC3B6B17
:1014100093F844305BB2B3F1FF3F03D13B6B002242
:1014200083F844203B6B93F845305BB2B3F1FF3F48
:1014300003D13B6B002283F84520FFF7E7FC3A1D00
:1014400007F114031146184601F036F80346002B45
:1014500024D1386B00F056FB0346002B18D03B6BB1
:1014600010337A681146184600F052FF386B00F0CE
:10147000E1FA00F073FD0346002B7FF47CAF0C4BC8
:101480004FF080521A60BFF34F8FBFF36F8F72E738
:10149000386B00F0CFFA00F061FD6CE7386B00F0BC
:1014A000C9FA00F05BFD002318463837BD4680BD01
:1014B00004ED00E080B58EB000AFF860B9607A60EE
:1014C0003B60FB683B633B6B002B09D14FF0500343
:1014D00083F31188BFF36F8FBFF34F8F7B61FEE7FC
:1014E000BB68002B03D13B6B1B6C002B01D101238C
:1014F00000E00023002B09D14FF0500383F3118843
:10150000BFF36F8FBFF34F8FBB61FEE73B68022BCA
:1015100003D13B6BDB6B012B01D1012300E00023E6
:10152000002B09D14FF0500383F31188BFF36F8F65
:10153000BFF34F8FFB61FEE7FFF70CFDEFF3118266
:101540004FF0500383F31188BFF36F8FBFF34F8FBA
:101550003A623B613B6ABB623B6B9A6B3B6BDB6BFA
:101560009A4202D33B68022B2CD13B6B93F8453057
:1015700087F827303A68B968386B00F0CBF997F9EB
:101580002730B3F1FF3F12D13B6B5B6A002B16D0C3
:101590003B6B2433184600F009FF0346002B0ED0A6
:1015A0007B68002B0BD07B6801221A6007E097F85C
:1015B00027300133DBB25AB23B6B83F8452001235D
:1015C0007B6301E000237B63BB6AFB62FB6A83F3FE
:1015D00011887B6B18463837BD4680BD80B58EB00C
:1015E00000AF786039607B683B633B6B002B09D1AF
:1015F0004FF0500383F31188BFF36F8FBFF34F8F0A
:101600003B61FEE73B6B1B6C002B09D04FF0500396
:1016100083F31188BFF36F8FBFF34F8F7B61FEE7BA
:101620003B6B1B68002B03D13B6B5B68002B01D12C
:10163000012300E00023002B09D14FF0500383F376
:101640001188BFF36F8FBFF34F8FBB61FEE7FFF7CA
:1016500081FCEFF311824FF0500383F31188BFF345
:101660006F8FBFF34F8FFA61FB60FB69BB623B6B0F
:101670009B6B7B623B6BDA6B7B6A9A422BD93B6B31
:1016800093F8453087F823307B6A5A1C3B6B9A638A
:1016900097F92330B3F1FF3F12D13B6B5B6A002B0C
:1016A00016D03B6B2433184600F080FE0346002B17
:1016B0000ED03B68002B0BD03B6801221A6007E07C
:1016C00097F823300133DBB25AB23B6B83F84520E5
:1016D00001237B6301E000237B63BB6AFB62FB6A3F
:1016E00083F311887B6B18463837BD4680BD00BF39
:1016F00080B58EB000AFF860B9607A603B600023BF
:101700007B63FB683B633B6B002B09D14FF05003BD
:1017100083F31188BFF36F8FBFF34F8FFB61FEE739
:10172000BB68002B03D13B6B1B6C002B01D1012349
:1017300000E00023002B09D14FF0500383F3118800
:10174000BFF36F8FBFF34F8F3B62FEE700F0EAFFFE
:101750000346002B02D17B68002B01D1012300E05E
:101760000023002B09D14FF0500383F31188BFF3FE
:101770006F8FBFF34F8F7B62FEE7FFF719FB3B6B69
:101780009B6BFB62FB6A002B46D03B6BDB68BB624A
:10179000B968386B00F028F93B68002B21D1FB6A4F
:1017A0005A1E3B6B9A633B6B1B68002B04D101F004
:1017B000D1F802463B6B5A603B6B1B69002B27D06C
:1017C0003B6B1033184600F0F1FD0346002B1FD091
:1017D0004F4B4FF080521A60BFF34F8FBFF36F8FA4
:1017E00016E03B6BBA6ADA603B6B5B6A002B0FD08A
:1017F0003B6B2433184600F0D9FD0346002B07D07D
:10180000434B4FF080521A60BFF34F8FBFF36F8F7F
:10181000FFF7FCFA012377E07B68002B03D1FFF789
:10182000F5FA002370E07B6B002B06D107F114035F
:10183000184600F01DFE01237B63FFF7E7FA00F076
:101840007FFBFFF7B5FA3B6B93F844305BB2B3F123
:10185000FF3F03D13B6B002283F844203B6B93F89E
:1018600045305BB2B3F1FF3F03D13B6B002283F8FD
:101870004520FFF7CBFA3A1D07F11403114618462D
:1018800000F01AFE0346002B31D1386B00F024F92A
:101890000346002B25D03B6B1B68002B08D1FFF7BC
:1018A00087FA3B6B5B68184600F05AFFFFF7AEFA09
:1018B0003B6B24337A681146184600F029FD386BDB
:1018C00000F0B8F800F04AFB0346002B7FF455AF58
:1018D0000F4B4FF080521A60BFF34F8FBFF36F8FE3
:1018E0004BE7386B00F0A6F800F038FB45E7386BA3
:1018F00000F0A0F800F032FB386B00F0EDF8034682
:10190000002B3FF43AAF002318463837BD4680BD60
:1019100004ED00E080B586B000AFF860B9607A6091
:1019200000237B61FB689B6B3B61FB681B6C002B9E
:101930000DD1FB681B68002B4DD1FB685B68184616
:1019400000F084FF7861FB6800225A6043E07B6806
:10195000002B19D1FB689868FB681B6C1A46B968A4
:10196000FEF73EFCFB689A68FB681B6C1A44FB6838
:101970009A60FB689A68FB685B689A422BD3FB68A5
:101980001A68FB689A6026E0FB68D868FB681B6CE5
:101990001A46B968FEF724FCFB68DA68FB681B6C22
:1019A0005B421A44FB68DA60FB68DA68FB681B6814
:1019B0009A4207D2FB685A68FB681B6C5B421A4468
:1019C000FB68DA607B68022B05D13B69002B02D0F3
:1019D0003B69013B3B613B695A1CFB689A637B692D
:1019E00018461837BD4680BD80B582B000AF78601C
:1019F00039607B681B6C002B18D07B68DA687B68C9
:101A00001B6C1A447B68DA607B68DA687B685B6809
:101A10009A4203D37B681A687B68DA607B68D9686E
:101A20007B681B6C1A463868FEF7DAFB00BF083784
:101A3000BD4680BD80B584B000AF7860FFF7B8F9CF
:101A40007B6893F84530FB7311E07B685B6A002B81
:101A500012D07B682433184600F0A8FC0346002B04
:101A600001D000F087FDFB7B013BDBB2FB7397F9F4
:101A70000F30002BE9DC00E000BF7B68FF2283F819
:101A80004520FFF7C3F9FFF793F97B6893F84430DB
:101A9000BB7311E07B681B69002B12D07B6810338D
:101AA000184600F083FC0346002B01D000F062FDD5
:101AB000BB7B013BDBB2BB7397F90E30002BE9DC3B
:101AC00000E000BF7B68FF2283F84420FFF79EF907
:101AD00000BF1037BD4680BD80B584B000AF7860D0
:101AE000FFF766F97B689B6B002B02D10123FB603B
:101AF00001E00023FB60FFF789F9FB681846103707
:101B0000BD4680BD80B584B000AF7860FFF750F966
:101B10007B689A6B7B68DB6B9A4202D10123FB6086
:101B200001E00023FB60FFF771F9FB6818461037EE
:101B3000BD4680BD80B485B000AF786039600023B9
:101B4000FB6014E00E4AFB6852F83330002B0BD1D7
:101B50000B49FB683A6841F83320094AFB68DB000F
:101B600013447A685A6005E0FB680133FB60FB6848
:101B7000072BE7D900BF1437BD465DF8047B7047DB
:101B8000642E012080B586B000AFF860B9607A603D
:101B9000FB687B61FFF70CF97B6993F844305BB21B
:101BA000B3F1FF3F03D17B69002283F844207B69B6
:101BB00093F845305BB2B3F1FF3F03D17B6900225C
:101BC00083F84520FFF722F97B699B6B002B06D138
:101BD0007B6924337A68B968184600F0BDFB7869E0
:101BE000FFF728FF00BF1837BD4680BD80B58CB019
:101BF00004AFF860B9603B601346FB80FB889B0034
:101C0000184601F0EDF978617B69002B0ED0502069
:101C100001F0E6F9F861FB69002B03D0FB697A69F2
:101C20001A6305E0786901F0A1FA01E00023FB6185
:101C3000FB69002B13D0FA8800230393FB690293FE
:101C4000FB6A0193BB6A00933B68B968F86800F0CF
:101C50000FF8F86900F08AF80123BB6102E04FF049
:101C6000FF33BB61BB6918462037BD4680BD00BF4E
:101C700080B588B000AFF860B9607A603B603B6BBC
:101C80001A6B7B6803F18043013B9B001344BB61EB
:101C9000BB6923F00703BB61BB6903F00703002B9B
:101CA00009D04FF0500383F31188BFF36F8FBFF358
:101CB0004F8F7B61FEE70023FB6112E0BA68FB698E
:101CC000134419783A6BFB69134434330A461A708B
:101CD000BA68FB6913441B78002B06D0FB690133FB
:101CE000FB61FB69092BE9D900E000BF3B6B0022D7
:101CF00083F83D20BB6A042B01D90423BB623B6BF4
:101D0000BA6ADA623B6BBA6A1A643B6B00225A64A5
:101D10003B6B04331846FFF77BF93B6B18331846CF
:101D2000FFF776F93B6B3A6B1A61BB6AC3F10502A8
:101D30003B6B9A613B6B3A6B5A623B6B00229A6435
:101D40003B6B002283F84C203A68F968B869FEF7CB
:101D500027FF02463B6B1A60FB6A002B02D0FB6A2E
:101D60003A6B1A6000BF2037BD4680BD80B582B097
:101D700000AF7860FFF71CF82A4B1B680133294A33
:101D80001360294B1B68002B09D1274A7B6813601D
:101D9000244B1B68012B10D100F012FC0DE0234BEB
:101DA0001B68002B09D1204B1B68DA6A7B68DB6A51
:101DB0009A4202D81C4A7B6813601D4B1B68013392
:101DC0001B4A13607B68DB6A01229A40194B1B682F
:101DD0001343184A13607B68DA6A13469B00134466
:101DE0009B00154A1A447B68043319461046FFF7D6
:101DF0001DF9FFF70BF80D4B1B68002B0ED00A4B9B
:101E00001B68DA6A7B68DB6A9A4207D20B4B4FF099
:101E100080521A60BFF34F8FBFF36F8F00BF083738
:101E2000BD4680BDF80000202000002004010020F5
:101E300014010020000100202400002004ED00E037
:101E400080B584B000AF78600023FB607B68002B16
:101E500016D0134B1B68002B09D04FF0500383F3AF
:101E60001188BFF36F8FBFF34F8FBB60FEE700F0A9
:101E700067F80021786800F081FD00F06FF8F860E5
:101E8000FB68002B07D1074B4FF080521A60BFF35D
:101E90004F8FBFF36F8F00BF1037BD4680BD00BFAF
:101EA0002001002004ED00E080B586B002AF1E4B9B
:101EB000019300230093002382221C491C48FFF752
:101EC00095FEF860FB68012B02D100F0BDFDF860C3
:101ED000FB68012B15D14FF0500383F31188BFF33A
:101EE0006F8FBFF34F8F7B60124B4FF0FF321A6042
:101EF000114B01221A60114B00221A60FEF7CCFE32
:101F00000DE0FB68B3F1FF3F09D14FF0500383F3BD
:101F10001188BFF36F8FBFF34F8FBB60FEE700BF29
:101F20001037BD4680BD00BF1C010020203E0008C8
:101F30008D2500081801002004010020FC0000206D
:101F400080B400AF044B1B680133034A136000BF29
:101F5000BD465DF8047B70472001002080B584B049
:101F600000AF0023FB600023BB60414B1B68002BCC
:101F700009D14FF0500383F31188BFF36F8FBFF384
:101F80004F8F3B60FEE7FEF713FF394B1B68013BA9
:101F9000374A1360364B1B68002B61D1354B1B68E9
:101FA000002B5DD02EE0344BDB68DB68FB60FB6808
:101FB00018331846FFF798F8FB6804331846FFF704
:101FC00093F8FB68DB6A01229A402C4B1B68134391
:101FD0002A4A1360FB68DA6A13469B0013449B008D
:101FE000274A1A44FB68043319461046FFF71EF8C7
:101FF000FB68DA6A234B1B68DB6A9A4202D3224BE6
:1020000001221A601C4B1B68002BCCD1FB68002BF3
:1020100001D000F061FB1D4B1B687B607B68002BCF
:1020200010D000F047F80346002B02D0164B0122D7
:102030001A607B68013B7B607B68002BF1D1134BFE
:1020400000221A60104B1B68002B09D00123BB60D3
:102050000F4B4FF080521A60BFF34F8FBFF36F8F5B
:10206000FEF7D4FEBB6818461037BD4680BD00BFE2
:1020700020010020F8000020B8000020000100200E
:1020800024000020200000200C0100200801002076
:1020900004ED00E080B483B000AF054B1B687B60AB
:1020A0007B6818460C37BD465DF8047B704700BF5F
:1020B000FC00002080B586B000AF00237B61544B4C
:1020C0001B68002B40F09280524B1B6801333B6130
:1020D000504A3B6913603B69002B1FD14E4B1B6874
:1020E0001B68002B09D04FF0500383F31188BFF316
:1020F0006F8FBFF34F8F3B60FEE7474B1B68FB6062
:10210000464B1B68444A1360444AFB681360444BC7
:102110001B680133424A136000F0DEFA414B1B6832
:102120003A699A424DD33C4B1B681B68002B01D186
:10213000012300E00023002B04D03A4B4FF0FF3284
:102140001A603EE0344B1B68DB68DB68BB60BB6831
:102150005B687B603A697B689A4203D2314A7B684C
:1021600013602EE0BB6804331846FEF7BDFFBB6862
:102170009B6A002B04D0BB6818331846FEF7B4FFE7
:10218000BB68DB6A01229A40274B1B681343264A2F
:102190001360BB68DA6A13469B0013449B00234A12
:1021A0001A44BB68043319461046FEF73FFFBB686C
:1021B000DA6A1F4B1B68DB6A9A42B4D301237B6146
:1021C000B1E71B4B1B68DA6A184913469B0013449E
:1021D0009B000B441B68012B01D901237B61154B2C
:1021E0001B68002B09D1FEF787FA06E0114B1B682C
:1021F0000133104A1360FEF77FFA0F4B1B68002B68
:1022000001D001237B617B6918461837BD4680BD2C
:1022100020010020FC000020B0000020B4000020BD
:1022200010010020180100200001002024000020DF
:1022300020000020080100200C01002080B586B09D
:1022400000AF2E4B1B68002B03D02D4B01221A60D0
:102250004FE02B4B00221A602A4B1B681A68294B4F
:102260001B681B6B9A4208D8264B1A68254B1B68C3
:10227000343319461046FEF75DFA234B1B68BB60EA
:10228000BB68B3FA83F3FB71FB79C3F11F033B61B6
:102290001E493A6913469B0013449B000B441B687C
:1022A000002B09D14FF0500383F31188BFF36F8FD8
:1022B000BFF34F8F7B61FEE73A6913469B001344DF
:1022C0009B00124A1344FB60FB685B685A68FB681A
:1022D0005A60FB685A68FB6808339A4204D1FB686D
:1022E0005B685A68FB685A60FB685B68DB68054A94
:1022F000136000BF1837BD4680BD00BF200100201D
:102300000C010020200000200001002024000020FB
:1023100080B584B000AF786039607B68002B09D14C
:102320004FF0500383F31188BFF36F8FBFF34F8FCC
:10233000FB60FEE7074B1B68183319467868FEF709
:1023400099FE0121386800F019FB00BF1037BD4627
:1023500080BD00BF2000002080B586B000AFF860CF
:10236000B9607A60FB68002B09D14FF0500383F30A
:102370001188BFF36F8FBFF34F8F7B61FEE70A4B6E
:102380001B6818331946F868FEF750FE7B68002B6F
:1023900002D04FF0FF33BB607968B86800F0EEFA06
:1023A00000BF1837BD4680BD2000002080B586B034
:1023B00000AF78607B68DB68DB683B613B69002BC2
:1023C00009D14FF0500383F31188BFF36F8FBFF330
:1023D0004F8FFB60FEE73B6918331846FEF784FE1B
:1023E0001D4B1B68002B1CD13B6904331846FEF7BC
:1023F0007BFE3B69DB6A01229A40184B1B68134342
:10240000164A13603B69DA6A13469B0013449B002B
:10241000134A1A443B69043319461046FEF706FE78
:1024200005E03B69183319460E48FEF7FFFD3B698E
:10243000DA6A0D4B1B68DB6A9A4205D901237B617E
:102440000A4B01221A6001E000237B617B69184678
:102450001837BD4680BD00BF2001002000010020CC
:1024600024000020B8000020200000200C010020E3
:1024700080B485B000AF78607B68002B09D14FF045
:10248000500383F31188BFF36F8FBFF34F8FFB604F
:10249000FEE7074B1A687B681A60064B1A687B6870
:1024A0005A6000BF1437BD465DF8047B704700BF1B
:1024B00010010020FC00002080B586B000AF7860DD
:1024C00039607B68002B09D14FF0500383F31188EA
:1024D000BFF36F8FBFF34F8FBB60FEE73B68002BEE
:1024E00009D14FF0500383F31188BFF36F8FBFF30F
:1024F0004F8FFB60FEE7FEF75BFC1C4B1B683B61EC
:102500003B681B68B3F1FF3F02D100237B6126E0EB
:102510007B681A68164B1B689A4207D07B685A681A
:102520003B699A4202D801237B6118E07B685B68B3
:102530003A69D21A3B681B689A420ED23B681A6805
:102540007B6859683B69CB1A1A443B681A60786803
:10255000FFF78EFF00237B6101E001237B61FEF723
:1025600055FC7B6918461837BD4680BDFC0000202D
:102570001001002080B400AF034B01221A6000BF9D
:10258000BD465DF8047B70470C01002080B582B029
:1025900000AF786000F054F8074B1B68012B07D997
:1025A000064B4FF080521A60BFF34F8FBFF36F8F0F
:1025B000FEF7B8F8EEE700BF2400002004ED00E0CD
:1025C00080B582B000AF00237B600CE07A681346D0
:1025D0009B0013449B00124A13441846FEF7F8FC74
:1025E0007B6801337B607B68042BEFD90D48FEF7D5
:1025F000EFFC0D48FEF7ECFC0C48FEF7E9FC0C483C
:10260000FEF7E6FC0B48FEF7E3FC0B4B054A1A60AD
:102610000A4B054A1A6000BF0837BD4680BD00BF9F
:1026200024000020880000209C000020B80000202A
:10263000CC000020E4000020B0000020B400002006
:1026400080B582B000AF28E0FFF77AFC174B1B681B
:10265000002B0CBF01230023DBB27B60FFF77EFC65
:102660007B68002B19D1FEF7A3FB104BDB68DB68FE
:102670003B603B6804331846FEF736FD0C4B1B6885
:10268000013B0B4A13600B4B1B68013B094A13606B
:10269000FEF7BCFB386800F00FF8064B1B68002BF8
:1026A000D2D100BF0837BD4680BD00BFCC0000209E
:1026B000F8000020E000002080B582B000AF786014
:1026C0007B681B6B184600F051FD786800F04EFDEA
:1026D00000BF0837BD4680BD80B483B000AF0F4B4C
:1026E0001B681B68002B01D1012300E00023002B95
:1026F00004D00B4B4FF0FF321A6008E0074B1B6809
:10270000DB68DB687B607B685B68054A136000BF41
:102710000C37BD465DF8047B704700BFB000002059
:102720001801002080B483B000AF0B4B1B68002B56
:1027300002D101237B6008E0084B1B68002B02D10B
:1027400002237B6001E000237B607B6818460C3726
:10275000BD465DF8047B7047040100202001002085
:1027600080B584B000AF78607B68FB607B68002B2D
:1027700062D0FB68DA6A324B1B68DB6A9A425BD232
:10278000FB689B69002B06DB2D4B1B68DB6AC3F1E2
:102790000502FB689A61FB685969FB68DA6A1346AF
:1027A0009B0013449B00274A1344994201D1012303
:1027B00000E00023002B3AD0FB6804331846FEF7F4
:1027C00093FC0346002B15D1FB68DA6A1D491346BA
:1027D0009B0013449B000B441B68002B0AD1FB6831
:1027E000DB6A012202FA03F3DA43174B1B6813403A
:1027F000154A1360124B1B68DA6AFB68DA62FB68E1
:10280000DB6A01229A40104B1B6813430E4A136087
:10281000FB68DA6A13469B0013449B00094A1A447A
:10282000FB68043319461046FEF700FC04E0044B35
:102830001B68DA6AFB68DA6200BF1037BD4680BDEC
:1028400020000020240000200001002080B586B078
:1028500000AF78607B683B6100237B617B68002B65
:102860006CD0394B1B683A699A4209D04FF050033B
:1028700083F31188BFF36F8FBFF34F8FBB60FEE709
:102880003B695B6C002B09D14FF0500383F3118837
:10289000BFF36F8FBFF34F8FFB60FEE73B695B6C4D
:1028A0005A1E3B695A643B69DA6A3B691B6C9A425F
:1028B00044D03B695B6C002B40D13B690433184624
:1028C000FEF712FC0346002B15D13B69DA6A1F495B
:1028D00013469B0013449B000B441B68002B0AD13A
:1028E0003B69DB6A012202FA03F3DA43184B1B68E7
:1028F0001340174A13603B691A6C3B69DA623B6903
:10290000DB6AC3F105023B699A613B69DB6A01221C
:102910009A400F4B1B6813430D4A13603B69DA6AF8
:1029200013469B0013449B00084A1A443B69043336
:1029300019461046FEF77AFB01237B617B69184636
:102940001837BD4680BD00BF2000002024000020B5
:102950000001002080B400AF074B1B68002B04D09F
:10296000054B1B685A6C01325A64034B1B681846AE
:10297000BD465DF8047B70472000002080B584B020
:1029800000AF78603960294B1B68FB60284B1B68DF
:1029900004331846FEF7A8FB0346002B0BD1244B4B
:1029A0001B68DB6A012202FA03F3DA43214B1B683E
:1029B0001340204A13607B68B3F1FF3F0AD13B68A4
:1029C000002B07D01A4B1B68043319461A48FEF730
:1029D0002DFB26E0FA687B681344BB60144B1B6830
:1029E000BA685A60BA68FB689A4209D2134B1A68EF
:1029F0000F4B1B68043319461046FEF73BFB10E0F3
:102A00000F4B1A680A4B1B68043319461046FEF731
:102A100031FB0C4B1B68BA689A4202D2094ABB6868
:102A2000136000BF1037BD4680BD00BFFC00002012
:102A30002000002000010020E4000020B40000205D
:102A4000B00000201801002080B584B002AF002340
:102A50007B6000F08FFA114B1B68002B0BD0104BE2
:102A600001930223009300234FF482720D490E4814
:102A7000FFF7BCF878607B68002B09D14FF050035A
:102A800083F31188BFF36F8FBFF34F8F3B60FEE777
:102A90007B6818460837BD4680BD00BF5401002042
:102AA00058010020283E0008C52B000880B58AB0D8
:102AB00000AFF860B9607A603B6000237B62FB681E
:102AC000002B09D14FF0500383F31188BFF36F8FB0
:102AD000BFF34F8F3B62FEE7194B1B68002B2AD0D8
:102AE000BB687B617B68BB61FB68FB61BB68052BD6
:102AF00018DCFFF717FE0346022B09D1104B1868AC
:102B000007F1140100233A6BFEF7DAFB786212E05A
:102B10000B4B186807F1140100230022FEF7D0FBCD
:102B2000786208E0064B186807F1140100233A6840
:102B3000FEF7C0FC78627B6A18462837BD4680BD28
:102B40005401002080B588B002AF786039601C4B1A
:102B50001B68DB68DB687B617B6904331846FEF722
:102B6000C3FA7B69DB69012B21D17B699A697B6898
:102B7000D1187B683A68786900F0C8F80346002BE2
:102B800015D00023009300237A6800217869FFF7AD
:102B90008DFF38613B69002B09D14FF0500383F35F
:102BA0001188BFF36F8FBFF34F8FFB60FEE77B6928
:102BB0005B6A7869984700BF1837BD4680BD00BF83
:102BC0004C01002080B584B000AF786007F10803A5
:102BD000184600F057F8F860BB681946F86800F02E
:102BE00003F800F0D5F8F1E780B584B000AF786065
:102BF0003960FFF7A5F907F10803184600F066F8F9
:102C0000F860BB68002B30D13B68002B0AD17A6892
:102C1000FB689A4206D8FFF7A1F9F9687868FFF7D0
:102C200091FF24E03B68002B08D0134B1B681B6806
:102C3000002B0CBF01230023DBB23B600F4B186855
:102C40007A68FB68D31A3A681946FEF79BFFFFF7CC
:102C500085F90346002B0AD1094B4FF080521A60C8
:102C6000BFF34F8FBFF36F8F01E0FFF777F900BF1E
:102C70001037BD4680BD00BF500100205401002028
:102C800004ED00E080B485B000AF78600E4B1B68A7
:102C90001B68002B0CBF01230023DBB21A467B68A4
:102CA0001A607B681B68002B05D1074B1B68DB682B
:102CB0001B68FB6001E00023FB60FB6818461437CB
:102CC000BD465DF8047B70474C01002080B584B0A0
:102CD00000AF7860FFF7DEF9F8600B4B1B68FA680D
:102CE0009A4205D200F0E6F87B6801221A6002E001
:102CF0007B6800221A60044AFB681360FB68184670
:102D00001037BD4680BD00BF5C01002080B586B095
:102D100000AFF860B9607A603B6000237B61FB68BC
:102D2000BA685A60FB68FA681A61BA687B689A42A6
:102D300012D87A683B68D21AFB689B699A4202D320
:102D400001237B611BE0104B1A68FB6804331946B2
:102D50001046FEF78FF912E07A683B689A4206D275
:102D6000BA683B689A4202D301237B6107E0074BB4
:102D70001A68FB68043319461046FEF77BF97B6935
:102D800018461837BD4680BD500100204C01002078
:102D900080B58CB002AF7AE0BB68002B77DB3B6973
:102DA0007B627B6A5B69002B04D07B6A0433184624
:102DB000FEF79AF93B1D1846FFF788FF3862BB689B
:102DC000092B63D801A252F823F000BFF52D0008AB
:102DD000F52D0008F52D00088F2E00084F2E000855
:102DE000852E0008F52D0008F52D00088F2E00080F
:102DF0004F2E0008FA687B6A9B69D118FB683A6A13
:102E0000786AFFF783FF0346002B40D07B6A5B6A3A
:102E1000786A98477B6ADB69012B38D1FA687B6A4C
:102E20009B691A440023009300230021786AFFF76E
:102E30003DFEF861FB69002B29D14FF0500383F36D
:102E40001188BFF36F8FBFF34F8F7B61FEE7FA6886
:102E50007B6A9A617B6A9B69002B09D14FF0500312
:102E600083F31188BFF36F8FBFF34F8FBB61FEE712
:102E70007B6A9A693B6AD1183B6A3A6A786AFFF7BB
:102E800045FF04E0786A00F071F900E000BF084BEC
:102E9000186807F1080100230022FEF729FC034609
:102EA000002B7FF479AF00BF2837BD4680BD00BF3F
:102EB0005401002080B588B002AF44E02B4B1B6862
:102EC000DB681B687B61294B1B68DB68DB683B6147
:102ED0003B6904331846FEF707F93B695B6A3869BA
:102EE00098473B69DB69012B2DD13B699A697B6966
:102EF0001344FB60FA687B699A420ED93B69FA6811
:102F00005A603B693A691A61184B1A683B69043385
:102F100019461046FEF7AEF815E000230093002393
:102F20007A6900213869FFF7C1FDB860BB68002BE2
:102F300009D14FF0500383F31188BFF36F8FBFF3B4
:102F40004F8F3B60FEE7094B1B681B68002BB5D118
:102F5000064B1B687B60064B1B68044A1360044ADF
:102F60007B68136000BF1837BD4680BD4C01002050
:102F70005001002080B500AFFDF71AFF124B1B680F
:102F8000002B1DD11148FEF723F81148FEF720F859
:102F9000104B0E4A1A60104B0D4A1A6000220C2189
:102FA0000A20FEF733F90246074B1A60064B1B68EE
:102FB000002B05D0044B1B6808491846FEF7BAFDE4
:102FC000FDF724FF00BF80BD540100202401002034
:102FD000380100204C01002050010020303E000844
:102FE00080B58AB000AF78600023FB61FEF7A8FFD0
:102FF000594B1B68002B01D100F010F9574B1A6890
:103000007B681340002B40F08C807B68002B1CD029
:1030100008227B6813447B607B6803F00703002B66
:1030200013D07B6823F0070308337B607B6803F0D1
:103030000703002B09D04FF0500383F31188BFF32F
:103040006F8FBFF34F8FFB60FEE77B68002B68D06C
:10305000434B1B687A689A4263D8424B3B62414BB0
:103060001B687B6204E07B6A3B627B6A1B687B6255
:103070007B6A5A687B689A4203D27B6A1B68002B82
:10308000F1D1354B1B687A6A9A424AD03B6A1B6879
:1030900008221344FB617B6A1A683B6A1A607B6AE8
:1030A0005A687B68D21A08235B009A421ED97A6A52
:1030B0007B6813447B617B6903F00703002B09D015
:1030C0004FF0500383F31188BFF36F8FBFF34F8F1F
:1030D000BB61FEE77B6A5A687B68D21A7B695A60DB
:1030E0007B6A7A685A60786900F0FAF81C4B1A68B3
:1030F0007B6A5B68D31A1A4A1360194B1A681A4B19
:103100001B689A4203D2164B1B68174A13607B6AEE
:103110005A68124B1B681A437B6A5A607B6A00220A
:103120001A60FEF71BFFFB69002B01D1FDF7ECFADB
:10313000FB6903F00703002B09D04FF0500383F322
:103140001188BFF36F8FBFF34F8F3B61FEE7FB69C1
:1031500018462837BD4680BD682D0120742D0120FA
:103160006C2D0120602D0120702D012080B586B0CE
:1031700000AF78607B687B617B68002B46D00823BA
:103180005B427A6913447B617B693B613B695A68A6
:10319000204B1B681340002B09D14FF0500383F3E1
:1031A0001188BFF36F8FBFF34F8FBB60FEE73B69A2
:1031B0001B68002B09D04FF0500383F31188BFF335
:1031C0006F8FBFF34F8FFB60FEE73B695A68114B6F
:1031D0001B681340002B19D03B691B68002B15D1CD
:1031E0003B695A680B4B1B68DB431A403B695A60CA
:1031F000FEF7A6FE3B695A68074B1B681344064A54
:103200001360386900F06CF8FEF7A8FE00BF1837AD
:10321000BD4680BD742D01206C2D012080B485B089
:1032200000AF4FF49633BB60274BFB60FB6803F0A5
:103230000703002B0CD0FB680733FB60FB6823F00F
:103240000703FB60BA68FB68D31A1F4A1344BB60CC
:10325000FB687B601D4A7B6813601C4B00225A6030
:103260007A68BB681344FB600822FB689B1AFB600A
:10327000FB6823F00703FB60FB68154A1360144BDF
:103280001B6800225A60124B1B6800221A607B6880
:103290003B603B68FA68D21A3B685A600C4B1A686C
:1032A0003B681A603B685B680A4A13603B685B686E
:1032B000094A1360094B4FF000421A6000BF1437EF
:1032C000BD465DF8047B704760010020602D012041
:1032D000682D0120702D01206C2D0120742D0120FE
:1032E00080B485B000AF7860284BFB6002E0FB68DB
:1032F0001B68FB60FB681A687B689A42F7D3FB681F
:10330000BB60FB685B68BA681A447B689A4208D164
:10331000FB685A687B685B681A44FB685A60FB6804
:103320007B607B68BB607B685B68BA681A44FB683B
:103330001B689A4218D1FB681A68154B1B689A42A1
:103340000DD07B685A68FB681B685B681A447B6811
:103350005A60FB681B681A687B681A6008E00C4BAF
:103360001A687B681A6003E0FB681A687B681A6059
:10337000FA687B689A4202D0FB687A681A6000BFDC
:103380001437BD465DF8047B704700BF602D0120F7
:10339000682D012080B483B000AF7860064A7B6856
:1033A00043F0BF6343F40033D36000BF0C37BD4626
:1033B0005DF8047B704700BF00ED00E080B485B08D
:1033C00000AF78600023FB730023BB730F237B7374
:1033D0007B68DB78002B38D0274BDB68DB4303F4BA
:1033E000E0631B0AFB73FB7BC3F10403BB737A7BB3
:1033F000FB7B42FA03F37B737B685B781A46BB7BEB
:1034000002FA03F3FB737B689A787B7B1340DAB292
:10341000FB7B1343FB73FB7B1B01FB73174A7B682E
:103420001B781344FA7B83F80023144A7B681B78CB
:103430005B09DBB218467B681B7803F01F03012190
:1034400001FA03F342F820300FE00C497B681B7847
:103450005B09DBB218467B681B7803F01F0301226F
:103460009A4000F1200341F8232000BF1437BD46E5
:103470005DF8047B704700BF00ED00E000E100E074
:1034800080B485B000AF786039600023FB607B6852
:103490001B68FB60FA68254B1340FB603B681A68A9
:1034A0003B68DB681A433B685B691A433B689B696E
:1034B0001A433B68DB691A433B681B6A1A433B6843
:1034C0005B6A1A433B689B6A1A433B685B6B1A430F
:1034D0003B689B6B1343FA681343FB607B68FA6895
:1034E0001A607B685B69FB60FB6823F00703FB6085
:1034F0003B68DA6A3B681B6B1343FA681343FB6053
:103500007B68FA685A613B681A697B685A603B6855
:103510005A687B689A603B689A687B68DA6000BF8B
:103520001437BD465DF8047B704700BF3F801CF038
:1035300080B483B000AF78607B6800221A607B683B
:1035400000225A607B6800229A607B680022DA6061
:103550007B6800221A617B6800225A617B68002226
:103560009A617B680022DA617B6800221A627B68BC
:1035700000225A627B6800229A627B680022DA622B
:103580007B6800221A637B6800225A637B680022F2
:103590009A6300BF0C37BD465DF8047B704700BFDF
:1035A00080B483B000AF78600B46FB70FB78002BD3
:1035B00006D07B681B6843F001027B681A6005E057
:1035C0007B681B6823F001027B681A6000BF0C3720
:1035D000BD465DF8047B704780B485B000AFF860ED
:1035E000B9601346FB71BB6803F08003002B0FD05A
:1035F000FB79002B06D0FB685B6943F08002FB6817
:103600005A6105E0FB685B6923F08002FB685A6140
:10361000BB68802B14D0FB79002B08D0FB681A689C
:10362000BB6803F01E031A43FB681A6008E0FB68DE
:103630001A68BB6803F01E03DB431A40FB681A607C
:1036400000BF1437BD465DF8047B704780B58AB073
:1036500000AF7860396000237B6200233B62002367
:10366000FB610023BB617B681B8A9BB27B627B6A28
:1036700023F440537B623B68DB881A467B6A134322
:103680007B627B6A9AB27B681A827B689B899BB259
:103690007B627B6A23F4B05323F00C037B623B68AC
:1036A0009A883B681B8913439AB23B685B89134332
:1036B0009BB21A467B6A13437B627B6A9AB27B6831
:1036C0009A817B689B8A9BB27B627B6A23F44073FE
:1036D0007B623B689B891A467B6A13437B627B6AE9
:1036E0009AB27B689A8207F10803184600F07EF9C7
:1036F0007B68304A934203D07B682F4A934202D1C1
:103700007B693B6201E03B693B627B689B899BB2C2
:103710001BB2002B0CDA3A6A13469B0013449A0042
:103720001A443B681B685B00B2FBF3F3FB610BE0E0
:103730003A6A13469B0013449A001A443B681B687C
:103740009B00B2FBF3F3FB61FB691C4AA2FB032362
:103750005B091B017B627B6A1B09642202FB03F38A
:10376000FA69D31ABB617B689B899BB21BB2002BA1
:103770000CDABB69DB003233104AA2FB03235B097E
:1037800003F007037A6A13437B620BE0BB691B01FA
:1037900032330A4AA2FB03235B0903F00F037A6A60
:1037A00013437B627B6A9AB27B681A8100BF283719
:1037B000BD4680BD00100140001401401F85EB5143
:1037C00080B483B000AF78600B46FB70FB78002BB1
:1037D00008D07B689B899BB243F400539AB27B6804
:1037E0009A8107E07B689B899BB223F400539AB2CD
:1037F0007B689A8100BF0C37BD465DF8047B70473B
:1038000080B483B000AF78607B689B889BB2C3F3C1
:1038100008039BB218460C37BD465DF8047B704721
:1038200080B483B000AF78600B467B8013467B701A
:103830007B78002B08D07B689B8A9AB27B881343E5
:103840009AB27B689A8209E07B689B8A9AB27B88ED
:10385000DB439BB213409AB27B689A8200BF0C375D
:10386000BD465DF8047B704780B487B000AF7860D8
:103870000B467B8013467B7000233B610023FB607B
:103880000023BB6000237B617B687B617B88DBB2AC
:103890005B09DBB23B617B8803F01F03FB60012205
:1038A000FB6802FA03F3BB603B69012B03D17B6920
:1038B0000C337B6109E03B69022B03D17B69103338
:1038C0007B6102E07B6914337B617B78002B06D03F
:1038D0007B697A691168BA680A431A6006E07B69F5
:1038E0007A691168BA68D2430A401A6000BF1C376F
:1038F000BD465DF8047B704780B487B000AF786048
:103900000B467B800023FB6000237B610023BB60B0
:103910000023FB747B88DBB25B09DBB2BB607B8876
:1039200003F01F037B6101227B6902FA03F37B61D1
:10393000BB68012B07D17B689B899BB21A467B69C8
:1039400013407B6111E0BB68022B07D17B681B8AA7
:103950009BB21A467B6913407B6106E07B689B8AB9
:103960009BB21A467B6913407B617B881B0A9BB222
:10397000FB600122FB6802FA03F3FB607B681B8893
:103980009BB21A46FB681340FB607B69002B05D095
:10399000FB68002B02D00123FB7401E00023FB74C1
:1039A000FB7C18461C37BD465DF8047B704700BFA2
:1039B00080B485B000AF78600B467B800023FB812C
:1039C0000023BB817B881B0AFB81FB89012202FA51
:1039D00003F3BB81BB89DB439AB27B681A8000BFCB
:1039E0001437BD465DF8047B704700BF80B489B0D2
:1039F00000AF78600023BB6100237B610023FB6183
:103A000002233B610023FB600223BB60484B9B68A1
:103A100003F00C03BB61BB69042B07D0082B09D052
:103A2000002B3FD17B68434A1A603FE07B68424AE3
:103A30001A603BE03E4B5B6803F480039B0DFB6028
:103A40003B4B5B6803F03F03BB60FB68002B0DD072
:103A5000394ABB68B2FBF3F2354B596847F6C0737D
:103A60000B409B0903FB02F3FB610CE0314ABB688E
:103A7000B2FBF3F22E4B596847F6C0730B409B091B
:103A800003FB02F3FB612A4B5B6803F440331B0C1E
:103A900001335B003B61FA693B69B2FBF3F27B687F
:103AA0001A6003E07B68234A1A6000BF204B9B68C2
:103AB00003F0F003BB61BB691B09BB611F4ABB6913
:103AC00013441B78DBB27B617B681A687B69DA4040
:103AD0007B685A60164B9B6803F4E053BB61BB697B
:103AE0009B0ABB61154ABB6913441B78DBB27B613F
:103AF0007B685A687B69DA407B689A600C4B9B68EC
:103B000003F46043BB61BB695B0BBB610B4ABB69E0
:103B100013441B78DBB27B617B685A687B69DA40AF
:103B20007B68DA6000BF2437BD465DF8047B7047D0
:103B3000003802400024F40000127A00080000203F
:103B400080B483B000AF78600B46FB70FB78002B2D
:103B500006D00A49094B1A6B7B6813430B6306E0D6
:103B60000649064B1A6B7B68DB4313400B6300BFAF
:103B70000C37BD465DF8047B704700BF003802403B
:103B800080B483B000AF78600B46FB70FB78002BED
:103B900006D00A49094B1A6C7B6813430B6406E094
:103BA0000649064B1A6C7B68DB4313400B6400BF6D
:103BB0000C37BD465DF8047B704700BF00380240FB
:103BC00080B483B000AF78600B46FB70FB78002BAD
:103BD00006D00A49094B5A6C7B6813434B6406E0D4
:103BE0000649064B5A6C7B68DB4313404B6400BFAD
:103BF0000C37BD465DF8047B704700BF00380240BB
:103C000080B487B000AF7860396000237B61002307
:103C10003B610023FB6000237B6176E001227B692E
:103C200002FA03F33B613B681A683B691340FB608F
:103C3000FA683B699A4265D17B681A687B695B00C8
:103C4000032101FA03F3DB431A407B681A607B68A7
:103C50001A683B681B7919467B695B0001FA03F31C
:103C60001A437B681A603B681B79012B03D03B68C1
:103C70001B79022B2ED17B689A687B695B0003213C
:103C800001FA03F3DB431A407B689A607B689A6809
:103C90003B685B7919467B695B0001FA03F31A43C1
:103CA0007B689A607B685A687B699BB2012101FA44
:103CB00003F3DB431A407B685A607B685A683B68B1
:103CC0009B7919467B699BB201FA03F39BB21A43B5
:103CD0007B685A607B68DA687B699BB25B00032172
:103CE00001FA03F3DB431A407B68DA607B68DA6829
:103CF0003B68DB7919467B695B0001FA03F31A43E1
:103D00007B68DA607B6901337B617B690F2B85D926
:103D100000BF1C37BD465DF8047B704780B485B09A
:103D200000AF78600B467B8013467B700023FB60FE
:103D30000023BB607A787B8803F007039B0002FABC
:103D400003F3FB607B88DB089BB218467B88DB08AB
:103D50009BB21A467B68083253F822207B8803F016
:103D600007039B000F2101FA03F3DB4302EA03017F
:103D70007B6800F1080243F822107B88DB089BB2C5
:103D80001A467B68083253F82220FB681343BB6055
:103D90007B88DB089BB21A467B680832B96843F817
:103DA000221000BF1437BD465DF8047B704700BF8A
:103DB000DFF830D0002103E00B4B5B584350043157
:103DC0000A480B4B42189A42F6D30A4A02E00023F3
:103DD00042F8043B084B9A42F9D3FCF7E5FDFCF7A7
:103DE00053FC704700000320383E0008000000200C
:103DF0001800002018000020A42E0120FEE700007B
:103E000053796E6365640D0A000000004F4B00009B
:103E10007061727365000000765461736B3200004C
:103E200049444C4500000000546D722053766300F5
:053E3000546D72510009
:103E38000095BA0AAAAAAAAA00000000010203046F
:083E480001020304060708094A
:0400000508003DB101
:00000001FF
